{
	"data": {
		"bytecode": {
			"linkReferences": {},
			"object": "6080604052348015600e575f5ffd5b506101eb8061001c5f395ff3fe60806040526004361061003e575f3560e01c80637d405ee914610042578063986cc3111461006c578063c1292cc314610088578063c969e0d7146100b2575b5f5ffd5b34801561004d575f5ffd5b506100566100dc565b604051610063919061011e565b60405180910390f35b61008660048036038101906100819190610165565b6100e2565b005b348015610093575f5ffd5b5061009c6100fb565b6040516100a9919061011e565b60405180910390f35b3480156100bd575f5ffd5b506100c6610100565b6040516100d3919061011e565b60405180910390f35b60015481565b825f819055508160018190555080600281905550505050565b5f5481565b60025481565b5f819050919050565b61011881610106565b82525050565b5f6020820190506101315f83018461010f565b92915050565b5f5ffd5b61014481610106565b811461014e575f5ffd5b50565b5f8135905061015f8161013b565b92915050565b5f5f5f6060848603121561017c5761017b610137565b5b5f61018986828701610151565b935050602061019a86828701610151565b92505060406101ab86828701610151565b915050925092509256fea2646970667358221220037cd1e7fc5810d78eb20507a9068d644c3af4de92cd7775312704d6572b272264736f6c634300081e0033",
			"opcodes": "PUSH1 0x80 PUSH1 0x40 MSTORE CALLVALUE DUP1 ISZERO PUSH1 0xE JUMPI PUSH0 PUSH0 REVERT JUMPDEST POP PUSH2 0x1EB DUP1 PUSH2 0x1C PUSH0 CODECOPY PUSH0 RETURN INVALID PUSH1 0x80 PUSH1 0x40 MSTORE PUSH1 0x4 CALLDATASIZE LT PUSH2 0x3E JUMPI PUSH0 CALLDATALOAD PUSH1 0xE0 SHR DUP1 PUSH4 0x7D405EE9 EQ PUSH2 0x42 JUMPI DUP1 PUSH4 0x986CC311 EQ PUSH2 0x6C JUMPI DUP1 PUSH4 0xC1292CC3 EQ PUSH2 0x88 JUMPI DUP1 PUSH4 0xC969E0D7 EQ PUSH2 0xB2 JUMPI JUMPDEST PUSH0 PUSH0 REVERT JUMPDEST CALLVALUE DUP1 ISZERO PUSH2 0x4D JUMPI PUSH0 PUSH0 REVERT JUMPDEST POP PUSH2 0x56 PUSH2 0xDC JUMP JUMPDEST PUSH1 0x40 MLOAD PUSH2 0x63 SWAP2 SWAP1 PUSH2 0x11E JUMP JUMPDEST PUSH1 0x40 MLOAD DUP1 SWAP2 SUB SWAP1 RETURN JUMPDEST PUSH2 0x86 PUSH1 0x4 DUP1 CALLDATASIZE SUB DUP2 ADD SWAP1 PUSH2 0x81 SWAP2 SWAP1 PUSH2 0x165 JUMP JUMPDEST PUSH2 0xE2 JUMP JUMPDEST STOP JUMPDEST CALLVALUE DUP1 ISZERO PUSH2 0x93 JUMPI PUSH0 PUSH0 REVERT JUMPDEST POP PUSH2 0x9C PUSH2 0xFB JUMP JUMPDEST PUSH1 0x40 MLOAD PUSH2 0xA9 SWAP2 SWAP1 PUSH2 0x11E JUMP JUMPDEST PUSH1 0x40 MLOAD DUP1 SWAP2 SUB SWAP1 RETURN JUMPDEST CALLVALUE DUP1 ISZERO PUSH2 0xBD JUMPI PUSH0 PUSH0 REVERT JUMPDEST POP PUSH2 0xC6 PUSH2 0x100 JUMP JUMPDEST PUSH1 0x40 MLOAD PUSH2 0xD3 SWAP2 SWAP1 PUSH2 0x11E JUMP JUMPDEST PUSH1 0x40 MLOAD DUP1 SWAP2 SUB SWAP1 RETURN JUMPDEST PUSH1 0x1 SLOAD DUP2 JUMP JUMPDEST DUP3 PUSH0 DUP2 SWAP1 SSTORE POP DUP2 PUSH1 0x1 DUP2 SWAP1 SSTORE POP DUP1 PUSH1 0x2 DUP2 SWAP1 SSTORE POP POP POP POP JUMP JUMPDEST PUSH0 SLOAD DUP2 JUMP JUMPDEST PUSH1 0x2 SLOAD DUP2 JUMP JUMPDEST PUSH0 DUP2 SWAP1 POP SWAP2 SWAP1 POP JUMP JUMPDEST PUSH2 0x118 DUP2 PUSH2 0x106 JUMP JUMPDEST DUP3 MSTORE POP POP JUMP JUMPDEST PUSH0 PUSH1 0x20 DUP3 ADD SWAP1 POP PUSH2 0x131 PUSH0 DUP4 ADD DUP5 PUSH2 0x10F JUMP JUMPDEST SWAP3 SWAP2 POP POP JUMP JUMPDEST PUSH0 PUSH0 REVERT JUMPDEST PUSH2 0x144 DUP2 PUSH2 0x106 JUMP JUMPDEST DUP2 EQ PUSH2 0x14E JUMPI PUSH0 PUSH0 REVERT JUMPDEST POP JUMP JUMPDEST PUSH0 DUP2 CALLDATALOAD SWAP1 POP PUSH2 0x15F DUP2 PUSH2 0x13B JUMP JUMPDEST SWAP3 SWAP2 POP POP JUMP JUMPDEST PUSH0 PUSH0 PUSH0 PUSH1 0x60 DUP5 DUP7 SUB SLT ISZERO PUSH2 0x17C JUMPI PUSH2 0x17B PUSH2 0x137 JUMP JUMPDEST JUMPDEST PUSH0 PUSH2 0x189 DUP7 DUP3 DUP8 ADD PUSH2 0x151 JUMP JUMPDEST SWAP4 POP POP PUSH1 0x20 PUSH2 0x19A DUP7 DUP3 DUP8 ADD PUSH2 0x151 JUMP JUMPDEST SWAP3 POP POP PUSH1 0x40 PUSH2 0x1AB DUP7 DUP3 DUP8 ADD PUSH2 0x151 JUMP JUMPDEST SWAP2 POP POP SWAP3 POP SWAP3 POP SWAP3 JUMP INVALID LOG2 PUSH5 0x6970667358 0x22 SLT KECCAK256 SUB PUSH29 0xD1E7FC5810D78EB20507A9068D644C3AF4DE92CD7775312704D6572B27 0x22 PUSH5 0x736F6C6343 STOP ADDMOD 0x1E STOP CALLER "
		},
		"gasEstimates": {
			"creation": {
				"codeDepositCost": "98200",
				"executionCost": "145",
				"totalCost": "98345"
			},
			"external": {
				"executeProposal(uint256,uint256,uint256)": "infinite",
				"lastId()": "2446",
				"lastTokens()": "2469",
				"lastVotes()": "2403"
			}
		},
		"methodIdentifiers": {
			"executeProposal(uint256,uint256,uint256)": "986cc311",
			"lastId()": "c1292cc3",
			"lastTokens()": "c969e0d7",
			"lastVotes()": "7d405ee9"
		}
	},
	"abi": [
		{
			"inputs": [
				{
					"internalType": "uint256",
					"name": "proposalId",
					"type": "uint256"
				},
				{
					"internalType": "uint256",
					"name": "totalVotes",
					"type": "uint256"
				},
				{
					"internalType": "uint256",
					"name": "totalTokens",
					"type": "uint256"
				}
			],
			"name": "executeProposal",
			"outputs": [],
			"stateMutability": "payable",
			"type": "function"
		},
		{
			"inputs": [],
			"name": "lastId",
			"outputs": [
				{
					"internalType": "uint256",
					"name": "",
					"type": "uint256"
				}
			],
			"stateMutability": "view",
			"type": "function"
		},
		{
			"inputs": [],
			"name": "lastTokens",
			"outputs": [
				{
					"internalType": "uint256",
					"name": "",
					"type": "uint256"
				}
			],
			"stateMutability": "view",
			"type": "function"
		},
		{
			"inputs": [],
			"name": "lastVotes",
			"outputs": [
				{
					"internalType": "uint256",
					"name": "",
					"type": "uint256"
				}
			],
			"stateMutability": "view",
			"type": "function"
		}
	]
}