{
	"data": {
		"bytecode": {
			"linkReferences": {},
			"object": "608060405234801561000f575f80fd5b506040516116dc3803806116dc833981810160405281019061003191906102dc565b845f819055508360019081610046919061058f565b508260029081610056919061058f565b50816003819055508060045f6101000a81548173ffffffffffffffffffffffffffffffffffffffff021916908373ffffffffffffffffffffffffffffffffffffffff1602179055503360055f6101000a81548173ffffffffffffffffffffffffffffffffffffffff021916908373ffffffffffffffffffffffffffffffffffffffff1602179055505f600460146101000a81548160ff021916908315150217905550505050505061065e565b5f604051905090565b5f80fd5b5f80fd5b5f819050919050565b61012581610113565b811461012f575f80fd5b50565b5f815190506101408161011c565b92915050565b5f80fd5b5f80fd5b5f601f19601f8301169050919050565b7f4e487b71000000000000000000000000000000000000000000000000000000005f52604160045260245ffd5b6101948261014e565b810181811067ffffffffffffffff821117156101b3576101b261015e565b5b80604052505050565b5f6101c5610102565b90506101d1828261018b565b919050565b5f67ffffffffffffffff8211156101f0576101ef61015e565b5b6101f98261014e565b9050602081019050919050565b8281835e5f83830152505050565b5f610226610221846101d6565b6101bc565b9050828152602081018484840111156102425761024161014a565b5b61024d848285610206565b509392505050565b5f82601f83011261026957610268610146565b5b8151610279848260208601610214565b91505092915050565b5f73ffffffffffffffffffffffffffffffffffffffff82169050919050565b5f6102ab82610282565b9050919050565b6102bb816102a1565b81146102c5575f80fd5b50565b5f815190506102d6816102b2565b92915050565b5f805f805f60a086880312156102f5576102f461010b565b5b5f61030288828901610132565b955050602086015167ffffffffffffffff8111156103235761032261010f565b5b61032f88828901610255565b945050604086015167ffffffffffffffff8111156103505761034f61010f565b5b61035c88828901610255565b935050606061036d88828901610132565b925050608061037e888289016102c8565b9150509295509295909350565b5f81519050919050565b7f4e487b71000000000000000000000000000000000000000000000000000000005f52602260045260245ffd5b5f60028204905060018216806103d957607f821691505b6020821081036103ec576103eb610395565b5b50919050565b5f819050815f5260205f209050919050565b5f6020601f8301049050919050565b5f82821b905092915050565b5f6008830261044e7fffffffffffffffffffffffffffffffffffffffffffffffffffffffffffffffff82610413565b6104588683610413565b95508019841693508086168417925050509392505050565b5f819050919050565b5f61049361048e61048984610113565b610470565b610113565b9050919050565b5f819050919050565b6104ac83610479565b6104c06104b88261049a565b84845461041f565b825550505050565b5f90565b6104d46104c8565b6104df8184846104a3565b505050565b5b81811015610502576104f75f826104cc565b6001810190506104e5565b5050565b601f82111561054757610518816103f2565b61052184610404565b81016020851015610530578190505b61054461053c85610404565b8301826104e4565b50505b505050565b5f82821c905092915050565b5f6105675f198460080261054c565b1980831691505092915050565b5f61057f8383610558565b9150826002028217905092915050565b6105988261038b565b67ffffffffffffffff8111156105b1576105b061015e565b5b6105bb82546103c2565b6105c6828285610506565b5f60209050601f8311600181146105f7575f84156105e5578287015190505b6105ef8582610574565b865550610656565b601f198416610605866103f2565b5f5b8281101561062c57848901518255600182019150602085019450602081019050610607565b868310156106495784890151610645601f891682610558565b8355505b6001600288020188555050505b505050505050565b6110718061066b5f395ff3fe6080604052600436106100a6575f3560e01c806366d003ac1161006357806366d003ac146101965780637284e416146101c05780639070577f146101ea578063d8bff5a514610200578063de63298d1461023c578063ed01bf2914610264576100a6565b806302d05d3f146100aa5780631ab76712146100d45780632dfca445146100f057806331a38c891461011a5780634a79d50c146101445780636090281d1461016e575b5f80fd5b3480156100b5575f80fd5b506100be61028e565b6040516100cb91906109b1565b60405180910390f35b6100ee60048036038101906100e99190610a01565b6102b3565b005b3480156100fb575f80fd5b506101046104dc565b6040516101119190610a4e565b60405180910390f35b348015610125575f80fd5b5061012e6104e1565b60405161013b9190610a81565b60405180910390f35b34801561014f575f80fd5b506101586104f4565b6040516101659190610b0a565b60405180910390f35b348015610179575f80fd5b50610194600480360381019061018f9190610b54565b610580565b005b3480156101a1575f80fd5b506101aa6106e6565b6040516101b791906109b1565b60405180910390f35b3480156101cb575f80fd5b506101d461070b565b6040516101e19190610b0a565b60405180910390f35b3480156101f5575f80fd5b506101fe610797565b005b34801561020b575f80fd5b5061022660048036038101906102219190610b92565b6108b0565b6040516102339190610a4e565b60405180910390f35b348015610247575f80fd5b50610262600480360381019061025d9190610b54565b6108c5565b005b34801561026f575f80fd5b5061027861096c565b6040516102859190610a4e565b60405180910390f35b60055f9054906101000a900473ffffffffffffffffffffffffffffffffffffffff1681565b600460149054906101000a900460ff1615610303576040517f08c379a00000000000000000000000000000000000000000000000000000000081526004016102fa90610c07565b60405180910390fd5b60055f9054906101000a900473ffffffffffffffffffffffffffffffffffffffff1673ffffffffffffffffffffffffffffffffffffffff163373ffffffffffffffffffffffffffffffffffffffff1614610392576040517f08c379a000000000000000000000000000000000000000000000000000000000815260040161038990610c95565b60405180910390fd5b5f82116103d4576040517f08c379a00000000000000000000000000000000000000000000000000000000081526004016103cb90610cfd565b60405180910390fd5b6001600460146101000a81548160ff02191690831515021790555060045f9054906101000a900473ffffffffffffffffffffffffffffffffffffffff1673ffffffffffffffffffffffffffffffffffffffff1663986cc3115f5484846040518463ffffffff1660e01b815260040161044e93929190610d1b565b5f604051808303815f87803b158015610465575f80fd5b505af1158015610477573d5f803e3d5ffd5b505050507fe285e47f4804f679760aa4e907da874045af16436d55df64b64ffd9ca2539dfa5f548260045f9054906101000a900473ffffffffffffffffffffffffffffffffffffffff166040516104d093929190610d50565b60405180910390a15050565b5f5481565b600460149054906101000a900460ff1681565b6001805461050190610db2565b80601f016020809104026020016040519081016040528092919081815260200182805461052d90610db2565b80156105785780601f1061054f57610100808354040283529160200191610578565b820191905f5260205f20905b81548152906001019060200180831161055b57829003601f168201915b505050505081565b60055f9054906101000a900473ffffffffffffffffffffffffffffffffffffffff1673ffffffffffffffffffffffffffffffffffffffff163373ffffffffffffffffffffffffffffffffffffffff161461060f576040517f08c379a000000000000000000000000000000000000000000000000000000000815260040161060690610e2c565b60405180910390fd5b8060065f8473ffffffffffffffffffffffffffffffffffffffff1673ffffffffffffffffffffffffffffffffffffffff1681526020019081526020015f2054101561068f576040517f08c379a000000000000000000000000000000000000000000000000000000000815260040161068690610e94565b60405180910390fd5b8060065f8473ffffffffffffffffffffffffffffffffffffffff1673ffffffffffffffffffffffffffffffffffffffff1681526020019081526020015f205f8282546106db9190610edf565b925050819055505050565b60045f9054906101000a900473ffffffffffffffffffffffffffffffffffffffff1681565b6002805461071890610db2565b80601f016020809104026020016040519081016040528092919081815260200182805461074490610db2565b801561078f5780601f106107665761010080835404028352916020019161078f565b820191905f5260205f20905b81548152906001019060200180831161077257829003601f168201915b505050505081565b60055f9054906101000a900473ffffffffffffffffffffffffffffffffffffffff1673ffffffffffffffffffffffffffffffffffffffff163373ffffffffffffffffffffffffffffffffffffffff1614610826576040517f08c379a000000000000000000000000000000000000000000000000000000000815260040161081d90610f82565b60405180910390fd5b600460149054906101000a900460ff1615610876576040517f08c379a000000000000000000000000000000000000000000000000000000000815260040161086d90610c07565b60405180910390fd5b7f789cf55be980739dad1d0699b93b58e806b51c9d96619bfa8fe0a28abaa7b30c5f546040516108a69190610a4e565b60405180910390a1565b6006602052805f5260405f205f915090505481565b600460149054906101000a900460ff1615610915576040517f08c379a000000000000000000000000000000000000000000000000000000000815260040161090c90610fea565b60405180910390fd5b8060065f8473ffffffffffffffffffffffffffffffffffffffff1673ffffffffffffffffffffffffffffffffffffffff1681526020019081526020015f205f8282546109619190611008565b925050819055505050565b60035481565b5f73ffffffffffffffffffffffffffffffffffffffff82169050919050565b5f61099b82610972565b9050919050565b6109ab81610991565b82525050565b5f6020820190506109c45f8301846109a2565b92915050565b5f80fd5b5f819050919050565b6109e0816109ce565b81146109ea575f80fd5b50565b5f813590506109fb816109d7565b92915050565b5f8060408385031215610a1757610a166109ca565b5b5f610a24858286016109ed565b9250506020610a35858286016109ed565b9150509250929050565b610a48816109ce565b82525050565b5f602082019050610a615f830184610a3f565b92915050565b5f8115159050919050565b610a7b81610a67565b82525050565b5f602082019050610a945f830184610a72565b92915050565b5f81519050919050565b5f82825260208201905092915050565b8281835e5f83830152505050565b5f601f19601f8301169050919050565b5f610adc82610a9a565b610ae68185610aa4565b9350610af6818560208601610ab4565b610aff81610ac2565b840191505092915050565b5f6020820190508181035f830152610b228184610ad2565b905092915050565b610b3381610991565b8114610b3d575f80fd5b50565b5f81359050610b4e81610b2a565b92915050565b5f8060408385031215610b6a57610b696109ca565b5b5f610b7785828601610b40565b9250506020610b88858286016109ed565b9150509250929050565b5f60208284031215610ba757610ba66109ca565b5b5f610bb484828501610b40565b91505092915050565b7f50726f706f73616c20616c7265616479206578656375746564000000000000005f82015250565b5f610bf1601983610aa4565b9150610bfc82610bbd565b602082019050919050565b5f6020820190508181035f830152610c1e81610be5565b9050919050565b7f4f6e6c79207468652070726f706f73616c2063726561746f722063616e2065785f8201527f6563757465000000000000000000000000000000000000000000000000000000602082015250565b5f610c7f602583610aa4565b9150610c8a82610c25565b604082019050919050565b5f6020820190508181035f830152610cac81610c73565b9050919050565b7f4e6f20766f74657320746f2065786563757465000000000000000000000000005f82015250565b5f610ce7601383610aa4565b9150610cf282610cb3565b602082019050919050565b5f6020820190508181035f830152610d1481610cdb565b9050919050565b5f606082019050610d2e5f830186610a3f565b610d3b6020830185610a3f565b610d486040830184610a3f565b949350505050565b5f606082019050610d635f830186610a3f565b610d706020830185610a3f565b610d7d60408301846109a2565b949350505050565b7f4e487b71000000000000000000000000000000000000000000000000000000005f52602260045260245ffd5b5f6002820490506001821680610dc957607f821691505b602082108103610ddc57610ddb610d85565b5b50919050565b7f4f6e6c792063726561746f722063616e20726566756e640000000000000000005f82015250565b5f610e16601783610aa4565b9150610e2182610de2565b602082019050919050565b5f6020820190508181035f830152610e4381610e0a565b9050919050565b7f496e73756666696369656e7420766f74657320746f20726566756e64000000005f82015250565b5f610e7e601c83610aa4565b9150610e8982610e4a565b602082019050919050565b5f6020820190508181035f830152610eab81610e72565b9050919050565b7f4e487b71000000000000000000000000000000000000000000000000000000005f52601160045260245ffd5b5f610ee9826109ce565b9150610ef4836109ce565b9250828203905081811115610f0c57610f0b610eb2565b5b92915050565b7f4f6e6c79207468652063726561746f722063616e2063616e63656c20746865205f8201527f70726f706f73616c000000000000000000000000000000000000000000000000602082015250565b5f610f6c602883610aa4565b9150610f7782610f12565b604082019050919050565b5f6020820190508181035f830152610f9981610f60565b9050919050565b7f43616e6e6f7420766f7465206f6e2065786563757465642070726f706f73616c5f82015250565b5f610fd4602083610aa4565b9150610fdf82610fa0565b602082019050919050565b5f6020820190508181035f83015261100181610fc8565b9050919050565b5f611012826109ce565b915061101d836109ce565b925082820190508082111561103557611034610eb2565b5b9291505056fea26469706673582212208dbf418082cde8542f92ddb2ed33f6bc9ef2f34b7dff7be56521497ff8b8b8a264736f6c634300081a0033",
			"opcodes": "PUSH1 0x80 PUSH1 0x40 MSTORE CALLVALUE DUP1 ISZERO PUSH2 0xF JUMPI PUSH0 DUP1 REVERT JUMPDEST POP PUSH1 0x40 MLOAD PUSH2 0x16DC CODESIZE SUB DUP1 PUSH2 0x16DC DUP4 CODECOPY DUP2 DUP2 ADD PUSH1 0x40 MSTORE DUP2 ADD SWAP1 PUSH2 0x31 SWAP2 SWAP1 PUSH2 0x2DC JUMP JUMPDEST DUP5 PUSH0 DUP2 SWAP1 SSTORE POP DUP4 PUSH1 0x1 SWAP1 DUP2 PUSH2 0x46 SWAP2 SWAP1 PUSH2 0x58F JUMP JUMPDEST POP DUP3 PUSH1 0x2 SWAP1 DUP2 PUSH2 0x56 SWAP2 SWAP1 PUSH2 0x58F JUMP JUMPDEST POP DUP2 PUSH1 0x3 DUP2 SWAP1 SSTORE POP DUP1 PUSH1 0x4 PUSH0 PUSH2 0x100 EXP DUP2 SLOAD DUP2 PUSH20 0xFFFFFFFFFFFFFFFFFFFFFFFFFFFFFFFFFFFFFFFF MUL NOT AND SWAP1 DUP4 PUSH20 0xFFFFFFFFFFFFFFFFFFFFFFFFFFFFFFFFFFFFFFFF AND MUL OR SWAP1 SSTORE POP CALLER PUSH1 0x5 PUSH0 PUSH2 0x100 EXP DUP2 SLOAD DUP2 PUSH20 0xFFFFFFFFFFFFFFFFFFFFFFFFFFFFFFFFFFFFFFFF MUL NOT AND SWAP1 DUP4 PUSH20 0xFFFFFFFFFFFFFFFFFFFFFFFFFFFFFFFFFFFFFFFF AND MUL OR SWAP1 SSTORE POP PUSH0 PUSH1 0x4 PUSH1 0x14 PUSH2 0x100 EXP DUP2 SLOAD DUP2 PUSH1 0xFF MUL NOT AND SWAP1 DUP4 ISZERO ISZERO MUL OR SWAP1 SSTORE POP POP POP POP POP POP PUSH2 0x65E JUMP JUMPDEST PUSH0 PUSH1 0x40 MLOAD SWAP1 POP SWAP1 JUMP JUMPDEST PUSH0 DUP1 REVERT JUMPDEST PUSH0 DUP1 REVERT JUMPDEST PUSH0 DUP2 SWAP1 POP SWAP2 SWAP1 POP JUMP JUMPDEST PUSH2 0x125 DUP2 PUSH2 0x113 JUMP JUMPDEST DUP2 EQ PUSH2 0x12F JUMPI PUSH0 DUP1 REVERT JUMPDEST POP JUMP JUMPDEST PUSH0 DUP2 MLOAD SWAP1 POP PUSH2 0x140 DUP2 PUSH2 0x11C JUMP JUMPDEST SWAP3 SWAP2 POP POP JUMP JUMPDEST PUSH0 DUP1 REVERT JUMPDEST PUSH0 DUP1 REVERT JUMPDEST PUSH0 PUSH1 0x1F NOT PUSH1 0x1F DUP4 ADD AND SWAP1 POP SWAP2 SWAP1 POP JUMP JUMPDEST PUSH32 0x4E487B7100000000000000000000000000000000000000000000000000000000 PUSH0 MSTORE PUSH1 0x41 PUSH1 0x4 MSTORE PUSH1 0x24 PUSH0 REVERT JUMPDEST PUSH2 0x194 DUP3 PUSH2 0x14E JUMP JUMPDEST DUP2 ADD DUP2 DUP2 LT PUSH8 0xFFFFFFFFFFFFFFFF DUP3 GT OR ISZERO PUSH2 0x1B3 JUMPI PUSH2 0x1B2 PUSH2 0x15E JUMP JUMPDEST JUMPDEST DUP1 PUSH1 0x40 MSTORE POP POP POP JUMP JUMPDEST PUSH0 PUSH2 0x1C5 PUSH2 0x102 JUMP JUMPDEST SWAP1 POP PUSH2 0x1D1 DUP3 DUP3 PUSH2 0x18B JUMP JUMPDEST SWAP2 SWAP1 POP JUMP JUMPDEST PUSH0 PUSH8 0xFFFFFFFFFFFFFFFF DUP3 GT ISZERO PUSH2 0x1F0 JUMPI PUSH2 0x1EF PUSH2 0x15E JUMP JUMPDEST JUMPDEST PUSH2 0x1F9 DUP3 PUSH2 0x14E JUMP JUMPDEST SWAP1 POP PUSH1 0x20 DUP2 ADD SWAP1 POP SWAP2 SWAP1 POP JUMP JUMPDEST DUP3 DUP2 DUP4 MCOPY PUSH0 DUP4 DUP4 ADD MSTORE POP POP POP JUMP JUMPDEST PUSH0 PUSH2 0x226 PUSH2 0x221 DUP5 PUSH2 0x1D6 JUMP JUMPDEST PUSH2 0x1BC JUMP JUMPDEST SWAP1 POP DUP3 DUP2 MSTORE PUSH1 0x20 DUP2 ADD DUP5 DUP5 DUP5 ADD GT ISZERO PUSH2 0x242 JUMPI PUSH2 0x241 PUSH2 0x14A JUMP JUMPDEST JUMPDEST PUSH2 0x24D DUP5 DUP3 DUP6 PUSH2 0x206 JUMP JUMPDEST POP SWAP4 SWAP3 POP POP POP JUMP JUMPDEST PUSH0 DUP3 PUSH1 0x1F DUP4 ADD SLT PUSH2 0x269 JUMPI PUSH2 0x268 PUSH2 0x146 JUMP JUMPDEST JUMPDEST DUP2 MLOAD PUSH2 0x279 DUP5 DUP3 PUSH1 0x20 DUP7 ADD PUSH2 0x214 JUMP JUMPDEST SWAP2 POP POP SWAP3 SWAP2 POP POP JUMP JUMPDEST PUSH0 PUSH20 0xFFFFFFFFFFFFFFFFFFFFFFFFFFFFFFFFFFFFFFFF DUP3 AND SWAP1 POP SWAP2 SWAP1 POP JUMP JUMPDEST PUSH0 PUSH2 0x2AB DUP3 PUSH2 0x282 JUMP JUMPDEST SWAP1 POP SWAP2 SWAP1 POP JUMP JUMPDEST PUSH2 0x2BB DUP2 PUSH2 0x2A1 JUMP JUMPDEST DUP2 EQ PUSH2 0x2C5 JUMPI PUSH0 DUP1 REVERT JUMPDEST POP JUMP JUMPDEST PUSH0 DUP2 MLOAD SWAP1 POP PUSH2 0x2D6 DUP2 PUSH2 0x2B2 JUMP JUMPDEST SWAP3 SWAP2 POP POP JUMP JUMPDEST PUSH0 DUP1 PUSH0 DUP1 PUSH0 PUSH1 0xA0 DUP7 DUP9 SUB SLT ISZERO PUSH2 0x2F5 JUMPI PUSH2 0x2F4 PUSH2 0x10B JUMP JUMPDEST JUMPDEST PUSH0 PUSH2 0x302 DUP9 DUP3 DUP10 ADD PUSH2 0x132 JUMP JUMPDEST SWAP6 POP POP PUSH1 0x20 DUP7 ADD MLOAD PUSH8 0xFFFFFFFFFFFFFFFF DUP2 GT ISZERO PUSH2 0x323 JUMPI PUSH2 0x322 PUSH2 0x10F JUMP JUMPDEST JUMPDEST PUSH2 0x32F DUP9 DUP3 DUP10 ADD PUSH2 0x255 JUMP JUMPDEST SWAP5 POP POP PUSH1 0x40 DUP7 ADD MLOAD PUSH8 0xFFFFFFFFFFFFFFFF DUP2 GT ISZERO PUSH2 0x350 JUMPI PUSH2 0x34F PUSH2 0x10F JUMP JUMPDEST JUMPDEST PUSH2 0x35C DUP9 DUP3 DUP10 ADD PUSH2 0x255 JUMP JUMPDEST SWAP4 POP POP PUSH1 0x60 PUSH2 0x36D DUP9 DUP3 DUP10 ADD PUSH2 0x132 JUMP JUMPDEST SWAP3 POP POP PUSH1 0x80 PUSH2 0x37E DUP9 DUP3 DUP10 ADD PUSH2 0x2C8 JUMP JUMPDEST SWAP2 POP POP SWAP3 SWAP6 POP SWAP3 SWAP6 SWAP1 SWAP4 POP JUMP JUMPDEST PUSH0 DUP2 MLOAD SWAP1 POP SWAP2 SWAP1 POP JUMP JUMPDEST PUSH32 0x4E487B7100000000000000000000000000000000000000000000000000000000 PUSH0 MSTORE PUSH1 0x22 PUSH1 0x4 MSTORE PUSH1 0x24 PUSH0 REVERT JUMPDEST PUSH0 PUSH1 0x2 DUP3 DIV SWAP1 POP PUSH1 0x1 DUP3 AND DUP1 PUSH2 0x3D9 JUMPI PUSH1 0x7F DUP3 AND SWAP2 POP JUMPDEST PUSH1 0x20 DUP3 LT DUP2 SUB PUSH2 0x3EC JUMPI PUSH2 0x3EB PUSH2 0x395 JUMP JUMPDEST JUMPDEST POP SWAP2 SWAP1 POP JUMP JUMPDEST PUSH0 DUP2 SWAP1 POP DUP2 PUSH0 MSTORE PUSH1 0x20 PUSH0 KECCAK256 SWAP1 POP SWAP2 SWAP1 POP JUMP JUMPDEST PUSH0 PUSH1 0x20 PUSH1 0x1F DUP4 ADD DIV SWAP1 POP SWAP2 SWAP1 POP JUMP JUMPDEST PUSH0 DUP3 DUP3 SHL SWAP1 POP SWAP3 SWAP2 POP POP JUMP JUMPDEST PUSH0 PUSH1 0x8 DUP4 MUL PUSH2 0x44E PUSH32 0xFFFFFFFFFFFFFFFFFFFFFFFFFFFFFFFFFFFFFFFFFFFFFFFFFFFFFFFFFFFFFFFF DUP3 PUSH2 0x413 JUMP JUMPDEST PUSH2 0x458 DUP7 DUP4 PUSH2 0x413 JUMP JUMPDEST SWAP6 POP DUP1 NOT DUP5 AND SWAP4 POP DUP1 DUP7 AND DUP5 OR SWAP3 POP POP POP SWAP4 SWAP3 POP POP POP JUMP JUMPDEST PUSH0 DUP2 SWAP1 POP SWAP2 SWAP1 POP JUMP JUMPDEST PUSH0 PUSH2 0x493 PUSH2 0x48E PUSH2 0x489 DUP5 PUSH2 0x113 JUMP JUMPDEST PUSH2 0x470 JUMP JUMPDEST PUSH2 0x113 JUMP JUMPDEST SWAP1 POP SWAP2 SWAP1 POP JUMP JUMPDEST PUSH0 DUP2 SWAP1 POP SWAP2 SWAP1 POP JUMP JUMPDEST PUSH2 0x4AC DUP4 PUSH2 0x479 JUMP JUMPDEST PUSH2 0x4C0 PUSH2 0x4B8 DUP3 PUSH2 0x49A JUMP JUMPDEST DUP5 DUP5 SLOAD PUSH2 0x41F JUMP JUMPDEST DUP3 SSTORE POP POP POP POP JUMP JUMPDEST PUSH0 SWAP1 JUMP JUMPDEST PUSH2 0x4D4 PUSH2 0x4C8 JUMP JUMPDEST PUSH2 0x4DF DUP2 DUP5 DUP5 PUSH2 0x4A3 JUMP JUMPDEST POP POP POP JUMP JUMPDEST JUMPDEST DUP2 DUP2 LT ISZERO PUSH2 0x502 JUMPI PUSH2 0x4F7 PUSH0 DUP3 PUSH2 0x4CC JUMP JUMPDEST PUSH1 0x1 DUP2 ADD SWAP1 POP PUSH2 0x4E5 JUMP JUMPDEST POP POP JUMP JUMPDEST PUSH1 0x1F DUP3 GT ISZERO PUSH2 0x547 JUMPI PUSH2 0x518 DUP2 PUSH2 0x3F2 JUMP JUMPDEST PUSH2 0x521 DUP5 PUSH2 0x404 JUMP JUMPDEST DUP2 ADD PUSH1 0x20 DUP6 LT ISZERO PUSH2 0x530 JUMPI DUP2 SWAP1 POP JUMPDEST PUSH2 0x544 PUSH2 0x53C DUP6 PUSH2 0x404 JUMP JUMPDEST DUP4 ADD DUP3 PUSH2 0x4E4 JUMP JUMPDEST POP POP JUMPDEST POP POP POP JUMP JUMPDEST PUSH0 DUP3 DUP3 SHR SWAP1 POP SWAP3 SWAP2 POP POP JUMP JUMPDEST PUSH0 PUSH2 0x567 PUSH0 NOT DUP5 PUSH1 0x8 MUL PUSH2 0x54C JUMP JUMPDEST NOT DUP1 DUP4 AND SWAP2 POP POP SWAP3 SWAP2 POP POP JUMP JUMPDEST PUSH0 PUSH2 0x57F DUP4 DUP4 PUSH2 0x558 JUMP JUMPDEST SWAP2 POP DUP3 PUSH1 0x2 MUL DUP3 OR SWAP1 POP SWAP3 SWAP2 POP POP JUMP JUMPDEST PUSH2 0x598 DUP3 PUSH2 0x38B JUMP JUMPDEST PUSH8 0xFFFFFFFFFFFFFFFF DUP2 GT ISZERO PUSH2 0x5B1 JUMPI PUSH2 0x5B0 PUSH2 0x15E JUMP JUMPDEST JUMPDEST PUSH2 0x5BB DUP3 SLOAD PUSH2 0x3C2 JUMP JUMPDEST PUSH2 0x5C6 DUP3 DUP3 DUP6 PUSH2 0x506 JUMP JUMPDEST PUSH0 PUSH1 0x20 SWAP1 POP PUSH1 0x1F DUP4 GT PUSH1 0x1 DUP2 EQ PUSH2 0x5F7 JUMPI PUSH0 DUP5 ISZERO PUSH2 0x5E5 JUMPI DUP3 DUP8 ADD MLOAD SWAP1 POP JUMPDEST PUSH2 0x5EF DUP6 DUP3 PUSH2 0x574 JUMP JUMPDEST DUP7 SSTORE POP PUSH2 0x656 JUMP JUMPDEST PUSH1 0x1F NOT DUP5 AND PUSH2 0x605 DUP7 PUSH2 0x3F2 JUMP JUMPDEST PUSH0 JUMPDEST DUP3 DUP2 LT ISZERO PUSH2 0x62C JUMPI DUP5 DUP10 ADD MLOAD DUP3 SSTORE PUSH1 0x1 DUP3 ADD SWAP2 POP PUSH1 0x20 DUP6 ADD SWAP5 POP PUSH1 0x20 DUP2 ADD SWAP1 POP PUSH2 0x607 JUMP JUMPDEST DUP7 DUP4 LT ISZERO PUSH2 0x649 JUMPI DUP5 DUP10 ADD MLOAD PUSH2 0x645 PUSH1 0x1F DUP10 AND DUP3 PUSH2 0x558 JUMP JUMPDEST DUP4 SSTORE POP JUMPDEST PUSH1 0x1 PUSH1 0x2 DUP9 MUL ADD DUP9 SSTORE POP POP POP JUMPDEST POP POP POP POP POP POP JUMP JUMPDEST PUSH2 0x1071 DUP1 PUSH2 0x66B PUSH0 CODECOPY PUSH0 RETURN INVALID PUSH1 0x80 PUSH1 0x40 MSTORE PUSH1 0x4 CALLDATASIZE LT PUSH2 0xA6 JUMPI PUSH0 CALLDATALOAD PUSH1 0xE0 SHR DUP1 PUSH4 0x66D003AC GT PUSH2 0x63 JUMPI DUP1 PUSH4 0x66D003AC EQ PUSH2 0x196 JUMPI DUP1 PUSH4 0x7284E416 EQ PUSH2 0x1C0 JUMPI DUP1 PUSH4 0x9070577F EQ PUSH2 0x1EA JUMPI DUP1 PUSH4 0xD8BFF5A5 EQ PUSH2 0x200 JUMPI DUP1 PUSH4 0xDE63298D EQ PUSH2 0x23C JUMPI DUP1 PUSH4 0xED01BF29 EQ PUSH2 0x264 JUMPI PUSH2 0xA6 JUMP JUMPDEST DUP1 PUSH4 0x2D05D3F EQ PUSH2 0xAA JUMPI DUP1 PUSH4 0x1AB76712 EQ PUSH2 0xD4 JUMPI DUP1 PUSH4 0x2DFCA445 EQ PUSH2 0xF0 JUMPI DUP1 PUSH4 0x31A38C89 EQ PUSH2 0x11A JUMPI DUP1 PUSH4 0x4A79D50C EQ PUSH2 0x144 JUMPI DUP1 PUSH4 0x6090281D EQ PUSH2 0x16E JUMPI JUMPDEST PUSH0 DUP1 REVERT JUMPDEST CALLVALUE DUP1 ISZERO PUSH2 0xB5 JUMPI PUSH0 DUP1 REVERT JUMPDEST POP PUSH2 0xBE PUSH2 0x28E JUMP JUMPDEST PUSH1 0x40 MLOAD PUSH2 0xCB SWAP2 SWAP1 PUSH2 0x9B1 JUMP JUMPDEST PUSH1 0x40 MLOAD DUP1 SWAP2 SUB SWAP1 RETURN JUMPDEST PUSH2 0xEE PUSH1 0x4 DUP1 CALLDATASIZE SUB DUP2 ADD SWAP1 PUSH2 0xE9 SWAP2 SWAP1 PUSH2 0xA01 JUMP JUMPDEST PUSH2 0x2B3 JUMP JUMPDEST STOP JUMPDEST CALLVALUE DUP1 ISZERO PUSH2 0xFB JUMPI PUSH0 DUP1 REVERT JUMPDEST POP PUSH2 0x104 PUSH2 0x4DC JUMP JUMPDEST PUSH1 0x40 MLOAD PUSH2 0x111 SWAP2 SWAP1 PUSH2 0xA4E JUMP JUMPDEST PUSH1 0x40 MLOAD DUP1 SWAP2 SUB SWAP1 RETURN JUMPDEST CALLVALUE DUP1 ISZERO PUSH2 0x125 JUMPI PUSH0 DUP1 REVERT JUMPDEST POP PUSH2 0x12E PUSH2 0x4E1 JUMP JUMPDEST PUSH1 0x40 MLOAD PUSH2 0x13B SWAP2 SWAP1 PUSH2 0xA81 JUMP JUMPDEST PUSH1 0x40 MLOAD DUP1 SWAP2 SUB SWAP1 RETURN JUMPDEST CALLVALUE DUP1 ISZERO PUSH2 0x14F JUMPI PUSH0 DUP1 REVERT JUMPDEST POP PUSH2 0x158 PUSH2 0x4F4 JUMP JUMPDEST PUSH1 0x40 MLOAD PUSH2 0x165 SWAP2 SWAP1 PUSH2 0xB0A JUMP JUMPDEST PUSH1 0x40 MLOAD DUP1 SWAP2 SUB SWAP1 RETURN JUMPDEST CALLVALUE DUP1 ISZERO PUSH2 0x179 JUMPI PUSH0 DUP1 REVERT JUMPDEST POP PUSH2 0x194 PUSH1 0x4 DUP1 CALLDATASIZE SUB DUP2 ADD SWAP1 PUSH2 0x18F SWAP2 SWAP1 PUSH2 0xB54 JUMP JUMPDEST PUSH2 0x580 JUMP JUMPDEST STOP JUMPDEST CALLVALUE DUP1 ISZERO PUSH2 0x1A1 JUMPI PUSH0 DUP1 REVERT JUMPDEST POP PUSH2 0x1AA PUSH2 0x6E6 JUMP JUMPDEST PUSH1 0x40 MLOAD PUSH2 0x1B7 SWAP2 SWAP1 PUSH2 0x9B1 JUMP JUMPDEST PUSH1 0x40 MLOAD DUP1 SWAP2 SUB SWAP1 RETURN JUMPDEST CALLVALUE DUP1 ISZERO PUSH2 0x1CB JUMPI PUSH0 DUP1 REVERT JUMPDEST POP PUSH2 0x1D4 PUSH2 0x70B JUMP JUMPDEST PUSH1 0x40 MLOAD PUSH2 0x1E1 SWAP2 SWAP1 PUSH2 0xB0A JUMP JUMPDEST PUSH1 0x40 MLOAD DUP1 SWAP2 SUB SWAP1 RETURN JUMPDEST CALLVALUE DUP1 ISZERO PUSH2 0x1F5 JUMPI PUSH0 DUP1 REVERT JUMPDEST POP PUSH2 0x1FE PUSH2 0x797 JUMP JUMPDEST STOP JUMPDEST CALLVALUE DUP1 ISZERO PUSH2 0x20B JUMPI PUSH0 DUP1 REVERT JUMPDEST POP PUSH2 0x226 PUSH1 0x4 DUP1 CALLDATASIZE SUB DUP2 ADD SWAP1 PUSH2 0x221 SWAP2 SWAP1 PUSH2 0xB92 JUMP JUMPDEST PUSH2 0x8B0 JUMP JUMPDEST PUSH1 0x40 MLOAD PUSH2 0x233 SWAP2 SWAP1 PUSH2 0xA4E JUMP JUMPDEST PUSH1 0x40 MLOAD DUP1 SWAP2 SUB SWAP1 RETURN JUMPDEST CALLVALUE DUP1 ISZERO PUSH2 0x247 JUMPI PUSH0 DUP1 REVERT JUMPDEST POP PUSH2 0x262 PUSH1 0x4 DUP1 CALLDATASIZE SUB DUP2 ADD SWAP1 PUSH2 0x25D SWAP2 SWAP1 PUSH2 0xB54 JUMP JUMPDEST PUSH2 0x8C5 JUMP JUMPDEST STOP JUMPDEST CALLVALUE DUP1 ISZERO PUSH2 0x26F JUMPI PUSH0 DUP1 REVERT JUMPDEST POP PUSH2 0x278 PUSH2 0x96C JUMP JUMPDEST PUSH1 0x40 MLOAD PUSH2 0x285 SWAP2 SWAP1 PUSH2 0xA4E JUMP JUMPDEST PUSH1 0x40 MLOAD DUP1 SWAP2 SUB SWAP1 RETURN JUMPDEST PUSH1 0x5 PUSH0 SWAP1 SLOAD SWAP1 PUSH2 0x100 EXP SWAP1 DIV PUSH20 0xFFFFFFFFFFFFFFFFFFFFFFFFFFFFFFFFFFFFFFFF AND DUP2 JUMP JUMPDEST PUSH1 0x4 PUSH1 0x14 SWAP1 SLOAD SWAP1 PUSH2 0x100 EXP SWAP1 DIV PUSH1 0xFF AND ISZERO PUSH2 0x303 JUMPI PUSH1 0x40 MLOAD PUSH32 0x8C379A000000000000000000000000000000000000000000000000000000000 DUP2 MSTORE PUSH1 0x4 ADD PUSH2 0x2FA SWAP1 PUSH2 0xC07 JUMP JUMPDEST PUSH1 0x40 MLOAD DUP1 SWAP2 SUB SWAP1 REVERT JUMPDEST PUSH1 0x5 PUSH0 SWAP1 SLOAD SWAP1 PUSH2 0x100 EXP SWAP1 DIV PUSH20 0xFFFFFFFFFFFFFFFFFFFFFFFFFFFFFFFFFFFFFFFF AND PUSH20 0xFFFFFFFFFFFFFFFFFFFFFFFFFFFFFFFFFFFFFFFF AND CALLER PUSH20 0xFFFFFFFFFFFFFFFFFFFFFFFFFFFFFFFFFFFFFFFF AND EQ PUSH2 0x392 JUMPI PUSH1 0x40 MLOAD PUSH32 0x8C379A000000000000000000000000000000000000000000000000000000000 DUP2 MSTORE PUSH1 0x4 ADD PUSH2 0x389 SWAP1 PUSH2 0xC95 JUMP JUMPDEST PUSH1 0x40 MLOAD DUP1 SWAP2 SUB SWAP1 REVERT JUMPDEST PUSH0 DUP3 GT PUSH2 0x3D4 JUMPI PUSH1 0x40 MLOAD PUSH32 0x8C379A000000000000000000000000000000000000000000000000000000000 DUP2 MSTORE PUSH1 0x4 ADD PUSH2 0x3CB SWAP1 PUSH2 0xCFD JUMP JUMPDEST PUSH1 0x40 MLOAD DUP1 SWAP2 SUB SWAP1 REVERT JUMPDEST PUSH1 0x1 PUSH1 0x4 PUSH1 0x14 PUSH2 0x100 EXP DUP2 SLOAD DUP2 PUSH1 0xFF MUL NOT AND SWAP1 DUP4 ISZERO ISZERO MUL OR SWAP1 SSTORE POP PUSH1 0x4 PUSH0 SWAP1 SLOAD SWAP1 PUSH2 0x100 EXP SWAP1 DIV PUSH20 0xFFFFFFFFFFFFFFFFFFFFFFFFFFFFFFFFFFFFFFFF AND PUSH20 0xFFFFFFFFFFFFFFFFFFFFFFFFFFFFFFFFFFFFFFFF AND PUSH4 0x986CC311 PUSH0 SLOAD DUP5 DUP5 PUSH1 0x40 MLOAD DUP5 PUSH4 0xFFFFFFFF AND PUSH1 0xE0 SHL DUP2 MSTORE PUSH1 0x4 ADD PUSH2 0x44E SWAP4 SWAP3 SWAP2 SWAP1 PUSH2 0xD1B JUMP JUMPDEST PUSH0 PUSH1 0x40 MLOAD DUP1 DUP4 SUB DUP2 PUSH0 DUP8 DUP1 EXTCODESIZE ISZERO DUP1 ISZERO PUSH2 0x465 JUMPI PUSH0 DUP1 REVERT JUMPDEST POP GAS CALL ISZERO DUP1 ISZERO PUSH2 0x477 JUMPI RETURNDATASIZE PUSH0 DUP1 RETURNDATACOPY RETURNDATASIZE PUSH0 REVERT JUMPDEST POP POP POP POP PUSH32 0xE285E47F4804F679760AA4E907DA874045AF16436D55DF64B64FFD9CA2539DFA PUSH0 SLOAD DUP3 PUSH1 0x4 PUSH0 SWAP1 SLOAD SWAP1 PUSH2 0x100 EXP SWAP1 DIV PUSH20 0xFFFFFFFFFFFFFFFFFFFFFFFFFFFFFFFFFFFFFFFF AND PUSH1 0x40 MLOAD PUSH2 0x4D0 SWAP4 SWAP3 SWAP2 SWAP1 PUSH2 0xD50 JUMP JUMPDEST PUSH1 0x40 MLOAD DUP1 SWAP2 SUB SWAP1 LOG1 POP POP JUMP JUMPDEST PUSH0 SLOAD DUP2 JUMP JUMPDEST PUSH1 0x4 PUSH1 0x14 SWAP1 SLOAD SWAP1 PUSH2 0x100 EXP SWAP1 DIV PUSH1 0xFF AND DUP2 JUMP JUMPDEST PUSH1 0x1 DUP1 SLOAD PUSH2 0x501 SWAP1 PUSH2 0xDB2 JUMP JUMPDEST DUP1 PUSH1 0x1F ADD PUSH1 0x20 DUP1 SWAP2 DIV MUL PUSH1 0x20 ADD PUSH1 0x40 MLOAD SWAP1 DUP2 ADD PUSH1 0x40 MSTORE DUP1 SWAP3 SWAP2 SWAP1 DUP2 DUP2 MSTORE PUSH1 0x20 ADD DUP3 DUP1 SLOAD PUSH2 0x52D SWAP1 PUSH2 0xDB2 JUMP JUMPDEST DUP1 ISZERO PUSH2 0x578 JUMPI DUP1 PUSH1 0x1F LT PUSH2 0x54F JUMPI PUSH2 0x100 DUP1 DUP4 SLOAD DIV MUL DUP4 MSTORE SWAP2 PUSH1 0x20 ADD SWAP2 PUSH2 0x578 JUMP JUMPDEST DUP3 ADD SWAP2 SWAP1 PUSH0 MSTORE PUSH1 0x20 PUSH0 KECCAK256 SWAP1 JUMPDEST DUP2 SLOAD DUP2 MSTORE SWAP1 PUSH1 0x1 ADD SWAP1 PUSH1 0x20 ADD DUP1 DUP4 GT PUSH2 0x55B JUMPI DUP3 SWAP1 SUB PUSH1 0x1F AND DUP3 ADD SWAP2 JUMPDEST POP POP POP POP POP DUP2 JUMP JUMPDEST PUSH1 0x5 PUSH0 SWAP1 SLOAD SWAP1 PUSH2 0x100 EXP SWAP1 DIV PUSH20 0xFFFFFFFFFFFFFFFFFFFFFFFFFFFFFFFFFFFFFFFF AND PUSH20 0xFFFFFFFFFFFFFFFFFFFFFFFFFFFFFFFFFFFFFFFF AND CALLER PUSH20 0xFFFFFFFFFFFFFFFFFFFFFFFFFFFFFFFFFFFFFFFF AND EQ PUSH2 0x60F JUMPI PUSH1 0x40 MLOAD PUSH32 0x8C379A000000000000000000000000000000000000000000000000000000000 DUP2 MSTORE PUSH1 0x4 ADD PUSH2 0x606 SWAP1 PUSH2 0xE2C JUMP JUMPDEST PUSH1 0x40 MLOAD DUP1 SWAP2 SUB SWAP1 REVERT JUMPDEST DUP1 PUSH1 0x6 PUSH0 DUP5 PUSH20 0xFFFFFFFFFFFFFFFFFFFFFFFFFFFFFFFFFFFFFFFF AND PUSH20 0xFFFFFFFFFFFFFFFFFFFFFFFFFFFFFFFFFFFFFFFF AND DUP2 MSTORE PUSH1 0x20 ADD SWAP1 DUP2 MSTORE PUSH1 0x20 ADD PUSH0 KECCAK256 SLOAD LT ISZERO PUSH2 0x68F JUMPI PUSH1 0x40 MLOAD PUSH32 0x8C379A000000000000000000000000000000000000000000000000000000000 DUP2 MSTORE PUSH1 0x4 ADD PUSH2 0x686 SWAP1 PUSH2 0xE94 JUMP JUMPDEST PUSH1 0x40 MLOAD DUP1 SWAP2 SUB SWAP1 REVERT JUMPDEST DUP1 PUSH1 0x6 PUSH0 DUP5 PUSH20 0xFFFFFFFFFFFFFFFFFFFFFFFFFFFFFFFFFFFFFFFF AND PUSH20 0xFFFFFFFFFFFFFFFFFFFFFFFFFFFFFFFFFFFFFFFF AND DUP2 MSTORE PUSH1 0x20 ADD SWAP1 DUP2 MSTORE PUSH1 0x20 ADD PUSH0 KECCAK256 PUSH0 DUP3 DUP3 SLOAD PUSH2 0x6DB SWAP2 SWAP1 PUSH2 0xEDF JUMP JUMPDEST SWAP3 POP POP DUP2 SWAP1 SSTORE POP POP POP JUMP JUMPDEST PUSH1 0x4 PUSH0 SWAP1 SLOAD SWAP1 PUSH2 0x100 EXP SWAP1 DIV PUSH20 0xFFFFFFFFFFFFFFFFFFFFFFFFFFFFFFFFFFFFFFFF AND DUP2 JUMP JUMPDEST PUSH1 0x2 DUP1 SLOAD PUSH2 0x718 SWAP1 PUSH2 0xDB2 JUMP JUMPDEST DUP1 PUSH1 0x1F ADD PUSH1 0x20 DUP1 SWAP2 DIV MUL PUSH1 0x20 ADD PUSH1 0x40 MLOAD SWAP1 DUP2 ADD PUSH1 0x40 MSTORE DUP1 SWAP3 SWAP2 SWAP1 DUP2 DUP2 MSTORE PUSH1 0x20 ADD DUP3 DUP1 SLOAD PUSH2 0x744 SWAP1 PUSH2 0xDB2 JUMP JUMPDEST DUP1 ISZERO PUSH2 0x78F JUMPI DUP1 PUSH1 0x1F LT PUSH2 0x766 JUMPI PUSH2 0x100 DUP1 DUP4 SLOAD DIV MUL DUP4 MSTORE SWAP2 PUSH1 0x20 ADD SWAP2 PUSH2 0x78F JUMP JUMPDEST DUP3 ADD SWAP2 SWAP1 PUSH0 MSTORE PUSH1 0x20 PUSH0 KECCAK256 SWAP1 JUMPDEST DUP2 SLOAD DUP2 MSTORE SWAP1 PUSH1 0x1 ADD SWAP1 PUSH1 0x20 ADD DUP1 DUP4 GT PUSH2 0x772 JUMPI DUP3 SWAP1 SUB PUSH1 0x1F AND DUP3 ADD SWAP2 JUMPDEST POP POP POP POP POP DUP2 JUMP JUMPDEST PUSH1 0x5 PUSH0 SWAP1 SLOAD SWAP1 PUSH2 0x100 EXP SWAP1 DIV PUSH20 0xFFFFFFFFFFFFFFFFFFFFFFFFFFFFFFFFFFFFFFFF AND PUSH20 0xFFFFFFFFFFFFFFFFFFFFFFFFFFFFFFFFFFFFFFFF AND CALLER PUSH20 0xFFFFFFFFFFFFFFFFFFFFFFFFFFFFFFFFFFFFFFFF AND EQ PUSH2 0x826 JUMPI PUSH1 0x40 MLOAD PUSH32 0x8C379A000000000000000000000000000000000000000000000000000000000 DUP2 MSTORE PUSH1 0x4 ADD PUSH2 0x81D SWAP1 PUSH2 0xF82 JUMP JUMPDEST PUSH1 0x40 MLOAD DUP1 SWAP2 SUB SWAP1 REVERT JUMPDEST PUSH1 0x4 PUSH1 0x14 SWAP1 SLOAD SWAP1 PUSH2 0x100 EXP SWAP1 DIV PUSH1 0xFF AND ISZERO PUSH2 0x876 JUMPI PUSH1 0x40 MLOAD PUSH32 0x8C379A000000000000000000000000000000000000000000000000000000000 DUP2 MSTORE PUSH1 0x4 ADD PUSH2 0x86D SWAP1 PUSH2 0xC07 JUMP JUMPDEST PUSH1 0x40 MLOAD DUP1 SWAP2 SUB SWAP1 REVERT JUMPDEST PUSH32 0x789CF55BE980739DAD1D0699B93B58E806B51C9D96619BFA8FE0A28ABAA7B30C PUSH0 SLOAD PUSH1 0x40 MLOAD PUSH2 0x8A6 SWAP2 SWAP1 PUSH2 0xA4E JUMP JUMPDEST PUSH1 0x40 MLOAD DUP1 SWAP2 SUB SWAP1 LOG1 JUMP JUMPDEST PUSH1 0x6 PUSH1 0x20 MSTORE DUP1 PUSH0 MSTORE PUSH1 0x40 PUSH0 KECCAK256 PUSH0 SWAP2 POP SWAP1 POP SLOAD DUP2 JUMP JUMPDEST PUSH1 0x4 PUSH1 0x14 SWAP1 SLOAD SWAP1 PUSH2 0x100 EXP SWAP1 DIV PUSH1 0xFF AND ISZERO PUSH2 0x915 JUMPI PUSH1 0x40 MLOAD PUSH32 0x8C379A000000000000000000000000000000000000000000000000000000000 DUP2 MSTORE PUSH1 0x4 ADD PUSH2 0x90C SWAP1 PUSH2 0xFEA JUMP JUMPDEST PUSH1 0x40 MLOAD DUP1 SWAP2 SUB SWAP1 REVERT JUMPDEST DUP1 PUSH1 0x6 PUSH0 DUP5 PUSH20 0xFFFFFFFFFFFFFFFFFFFFFFFFFFFFFFFFFFFFFFFF AND PUSH20 0xFFFFFFFFFFFFFFFFFFFFFFFFFFFFFFFFFFFFFFFF AND DUP2 MSTORE PUSH1 0x20 ADD SWAP1 DUP2 MSTORE PUSH1 0x20 ADD PUSH0 KECCAK256 PUSH0 DUP3 DUP3 SLOAD PUSH2 0x961 SWAP2 SWAP1 PUSH2 0x1008 JUMP JUMPDEST SWAP3 POP POP DUP2 SWAP1 SSTORE POP POP POP JUMP JUMPDEST PUSH1 0x3 SLOAD DUP2 JUMP JUMPDEST PUSH0 PUSH20 0xFFFFFFFFFFFFFFFFFFFFFFFFFFFFFFFFFFFFFFFF DUP3 AND SWAP1 POP SWAP2 SWAP1 POP JUMP JUMPDEST PUSH0 PUSH2 0x99B DUP3 PUSH2 0x972 JUMP JUMPDEST SWAP1 POP SWAP2 SWAP1 POP JUMP JUMPDEST PUSH2 0x9AB DUP2 PUSH2 0x991 JUMP JUMPDEST DUP3 MSTORE POP POP JUMP JUMPDEST PUSH0 PUSH1 0x20 DUP3 ADD SWAP1 POP PUSH2 0x9C4 PUSH0 DUP4 ADD DUP5 PUSH2 0x9A2 JUMP JUMPDEST SWAP3 SWAP2 POP POP JUMP JUMPDEST PUSH0 DUP1 REVERT JUMPDEST PUSH0 DUP2 SWAP1 POP SWAP2 SWAP1 POP JUMP JUMPDEST PUSH2 0x9E0 DUP2 PUSH2 0x9CE JUMP JUMPDEST DUP2 EQ PUSH2 0x9EA JUMPI PUSH0 DUP1 REVERT JUMPDEST POP JUMP JUMPDEST PUSH0 DUP2 CALLDATALOAD SWAP1 POP PUSH2 0x9FB DUP2 PUSH2 0x9D7 JUMP JUMPDEST SWAP3 SWAP2 POP POP JUMP JUMPDEST PUSH0 DUP1 PUSH1 0x40 DUP4 DUP6 SUB SLT ISZERO PUSH2 0xA17 JUMPI PUSH2 0xA16 PUSH2 0x9CA JUMP JUMPDEST JUMPDEST PUSH0 PUSH2 0xA24 DUP6 DUP3 DUP7 ADD PUSH2 0x9ED JUMP JUMPDEST SWAP3 POP POP PUSH1 0x20 PUSH2 0xA35 DUP6 DUP3 DUP7 ADD PUSH2 0x9ED JUMP JUMPDEST SWAP2 POP POP SWAP3 POP SWAP3 SWAP1 POP JUMP JUMPDEST PUSH2 0xA48 DUP2 PUSH2 0x9CE JUMP JUMPDEST DUP3 MSTORE POP POP JUMP JUMPDEST PUSH0 PUSH1 0x20 DUP3 ADD SWAP1 POP PUSH2 0xA61 PUSH0 DUP4 ADD DUP5 PUSH2 0xA3F JUMP JUMPDEST SWAP3 SWAP2 POP POP JUMP JUMPDEST PUSH0 DUP2 ISZERO ISZERO SWAP1 POP SWAP2 SWAP1 POP JUMP JUMPDEST PUSH2 0xA7B DUP2 PUSH2 0xA67 JUMP JUMPDEST DUP3 MSTORE POP POP JUMP JUMPDEST PUSH0 PUSH1 0x20 DUP3 ADD SWAP1 POP PUSH2 0xA94 PUSH0 DUP4 ADD DUP5 PUSH2 0xA72 JUMP JUMPDEST SWAP3 SWAP2 POP POP JUMP JUMPDEST PUSH0 DUP2 MLOAD SWAP1 POP SWAP2 SWAP1 POP JUMP JUMPDEST PUSH0 DUP3 DUP3 MSTORE PUSH1 0x20 DUP3 ADD SWAP1 POP SWAP3 SWAP2 POP POP JUMP JUMPDEST DUP3 DUP2 DUP4 MCOPY PUSH0 DUP4 DUP4 ADD MSTORE POP POP POP JUMP JUMPDEST PUSH0 PUSH1 0x1F NOT PUSH1 0x1F DUP4 ADD AND SWAP1 POP SWAP2 SWAP1 POP JUMP JUMPDEST PUSH0 PUSH2 0xADC DUP3 PUSH2 0xA9A JUMP JUMPDEST PUSH2 0xAE6 DUP2 DUP6 PUSH2 0xAA4 JUMP JUMPDEST SWAP4 POP PUSH2 0xAF6 DUP2 DUP6 PUSH1 0x20 DUP7 ADD PUSH2 0xAB4 JUMP JUMPDEST PUSH2 0xAFF DUP2 PUSH2 0xAC2 JUMP JUMPDEST DUP5 ADD SWAP2 POP POP SWAP3 SWAP2 POP POP JUMP JUMPDEST PUSH0 PUSH1 0x20 DUP3 ADD SWAP1 POP DUP2 DUP2 SUB PUSH0 DUP4 ADD MSTORE PUSH2 0xB22 DUP2 DUP5 PUSH2 0xAD2 JUMP JUMPDEST SWAP1 POP SWAP3 SWAP2 POP POP JUMP JUMPDEST PUSH2 0xB33 DUP2 PUSH2 0x991 JUMP JUMPDEST DUP2 EQ PUSH2 0xB3D JUMPI PUSH0 DUP1 REVERT JUMPDEST POP JUMP JUMPDEST PUSH0 DUP2 CALLDATALOAD SWAP1 POP PUSH2 0xB4E DUP2 PUSH2 0xB2A JUMP JUMPDEST SWAP3 SWAP2 POP POP JUMP JUMPDEST PUSH0 DUP1 PUSH1 0x40 DUP4 DUP6 SUB SLT ISZERO PUSH2 0xB6A JUMPI PUSH2 0xB69 PUSH2 0x9CA JUMP JUMPDEST JUMPDEST PUSH0 PUSH2 0xB77 DUP6 DUP3 DUP7 ADD PUSH2 0xB40 JUMP JUMPDEST SWAP3 POP POP PUSH1 0x20 PUSH2 0xB88 DUP6 DUP3 DUP7 ADD PUSH2 0x9ED JUMP JUMPDEST SWAP2 POP POP SWAP3 POP SWAP3 SWAP1 POP JUMP JUMPDEST PUSH0 PUSH1 0x20 DUP3 DUP5 SUB SLT ISZERO PUSH2 0xBA7 JUMPI PUSH2 0xBA6 PUSH2 0x9CA JUMP JUMPDEST JUMPDEST PUSH0 PUSH2 0xBB4 DUP5 DUP3 DUP6 ADD PUSH2 0xB40 JUMP JUMPDEST SWAP2 POP POP SWAP3 SWAP2 POP POP JUMP JUMPDEST PUSH32 0x50726F706F73616C20616C726561647920657865637574656400000000000000 PUSH0 DUP3 ADD MSTORE POP JUMP JUMPDEST PUSH0 PUSH2 0xBF1 PUSH1 0x19 DUP4 PUSH2 0xAA4 JUMP JUMPDEST SWAP2 POP PUSH2 0xBFC DUP3 PUSH2 0xBBD JUMP JUMPDEST PUSH1 0x20 DUP3 ADD SWAP1 POP SWAP2 SWAP1 POP JUMP JUMPDEST PUSH0 PUSH1 0x20 DUP3 ADD SWAP1 POP DUP2 DUP2 SUB PUSH0 DUP4 ADD MSTORE PUSH2 0xC1E DUP2 PUSH2 0xBE5 JUMP JUMPDEST SWAP1 POP SWAP2 SWAP1 POP JUMP JUMPDEST PUSH32 0x4F6E6C79207468652070726F706F73616C2063726561746F722063616E206578 PUSH0 DUP3 ADD MSTORE PUSH32 0x6563757465000000000000000000000000000000000000000000000000000000 PUSH1 0x20 DUP3 ADD MSTORE POP JUMP JUMPDEST PUSH0 PUSH2 0xC7F PUSH1 0x25 DUP4 PUSH2 0xAA4 JUMP JUMPDEST SWAP2 POP PUSH2 0xC8A DUP3 PUSH2 0xC25 JUMP JUMPDEST PUSH1 0x40 DUP3 ADD SWAP1 POP SWAP2 SWAP1 POP JUMP JUMPDEST PUSH0 PUSH1 0x20 DUP3 ADD SWAP1 POP DUP2 DUP2 SUB PUSH0 DUP4 ADD MSTORE PUSH2 0xCAC DUP2 PUSH2 0xC73 JUMP JUMPDEST SWAP1 POP SWAP2 SWAP1 POP JUMP JUMPDEST PUSH32 0x4E6F20766F74657320746F206578656375746500000000000000000000000000 PUSH0 DUP3 ADD MSTORE POP JUMP JUMPDEST PUSH0 PUSH2 0xCE7 PUSH1 0x13 DUP4 PUSH2 0xAA4 JUMP JUMPDEST SWAP2 POP PUSH2 0xCF2 DUP3 PUSH2 0xCB3 JUMP JUMPDEST PUSH1 0x20 DUP3 ADD SWAP1 POP SWAP2 SWAP1 POP JUMP JUMPDEST PUSH0 PUSH1 0x20 DUP3 ADD SWAP1 POP DUP2 DUP2 SUB PUSH0 DUP4 ADD MSTORE PUSH2 0xD14 DUP2 PUSH2 0xCDB JUMP JUMPDEST SWAP1 POP SWAP2 SWAP1 POP JUMP JUMPDEST PUSH0 PUSH1 0x60 DUP3 ADD SWAP1 POP PUSH2 0xD2E PUSH0 DUP4 ADD DUP7 PUSH2 0xA3F JUMP JUMPDEST PUSH2 0xD3B PUSH1 0x20 DUP4 ADD DUP6 PUSH2 0xA3F JUMP JUMPDEST PUSH2 0xD48 PUSH1 0x40 DUP4 ADD DUP5 PUSH2 0xA3F JUMP JUMPDEST SWAP5 SWAP4 POP POP POP POP JUMP JUMPDEST PUSH0 PUSH1 0x60 DUP3 ADD SWAP1 POP PUSH2 0xD63 PUSH0 DUP4 ADD DUP7 PUSH2 0xA3F JUMP JUMPDEST PUSH2 0xD70 PUSH1 0x20 DUP4 ADD DUP6 PUSH2 0xA3F JUMP JUMPDEST PUSH2 0xD7D PUSH1 0x40 DUP4 ADD DUP5 PUSH2 0x9A2 JUMP JUMPDEST SWAP5 SWAP4 POP POP POP POP JUMP JUMPDEST PUSH32 0x4E487B7100000000000000000000000000000000000000000000000000000000 PUSH0 MSTORE PUSH1 0x22 PUSH1 0x4 MSTORE PUSH1 0x24 PUSH0 REVERT JUMPDEST PUSH0 PUSH1 0x2 DUP3 DIV SWAP1 POP PUSH1 0x1 DUP3 AND DUP1 PUSH2 0xDC9 JUMPI PUSH1 0x7F DUP3 AND SWAP2 POP JUMPDEST PUSH1 0x20 DUP3 LT DUP2 SUB PUSH2 0xDDC JUMPI PUSH2 0xDDB PUSH2 0xD85 JUMP JUMPDEST JUMPDEST POP SWAP2 SWAP1 POP JUMP JUMPDEST PUSH32 0x4F6E6C792063726561746F722063616E20726566756E64000000000000000000 PUSH0 DUP3 ADD MSTORE POP JUMP JUMPDEST PUSH0 PUSH2 0xE16 PUSH1 0x17 DUP4 PUSH2 0xAA4 JUMP JUMPDEST SWAP2 POP PUSH2 0xE21 DUP3 PUSH2 0xDE2 JUMP JUMPDEST PUSH1 0x20 DUP3 ADD SWAP1 POP SWAP2 SWAP1 POP JUMP JUMPDEST PUSH0 PUSH1 0x20 DUP3 ADD SWAP1 POP DUP2 DUP2 SUB PUSH0 DUP4 ADD MSTORE PUSH2 0xE43 DUP2 PUSH2 0xE0A JUMP JUMPDEST SWAP1 POP SWAP2 SWAP1 POP JUMP JUMPDEST PUSH32 0x496E73756666696369656E7420766F74657320746F20726566756E6400000000 PUSH0 DUP3 ADD MSTORE POP JUMP JUMPDEST PUSH0 PUSH2 0xE7E PUSH1 0x1C DUP4 PUSH2 0xAA4 JUMP JUMPDEST SWAP2 POP PUSH2 0xE89 DUP3 PUSH2 0xE4A JUMP JUMPDEST PUSH1 0x20 DUP3 ADD SWAP1 POP SWAP2 SWAP1 POP JUMP JUMPDEST PUSH0 PUSH1 0x20 DUP3 ADD SWAP1 POP DUP2 DUP2 SUB PUSH0 DUP4 ADD MSTORE PUSH2 0xEAB DUP2 PUSH2 0xE72 JUMP JUMPDEST SWAP1 POP SWAP2 SWAP1 POP JUMP JUMPDEST PUSH32 0x4E487B7100000000000000000000000000000000000000000000000000000000 PUSH0 MSTORE PUSH1 0x11 PUSH1 0x4 MSTORE PUSH1 0x24 PUSH0 REVERT JUMPDEST PUSH0 PUSH2 0xEE9 DUP3 PUSH2 0x9CE JUMP JUMPDEST SWAP2 POP PUSH2 0xEF4 DUP4 PUSH2 0x9CE JUMP JUMPDEST SWAP3 POP DUP3 DUP3 SUB SWAP1 POP DUP2 DUP2 GT ISZERO PUSH2 0xF0C JUMPI PUSH2 0xF0B PUSH2 0xEB2 JUMP JUMPDEST JUMPDEST SWAP3 SWAP2 POP POP JUMP JUMPDEST PUSH32 0x4F6E6C79207468652063726561746F722063616E2063616E63656C2074686520 PUSH0 DUP3 ADD MSTORE PUSH32 0x70726F706F73616C000000000000000000000000000000000000000000000000 PUSH1 0x20 DUP3 ADD MSTORE POP JUMP JUMPDEST PUSH0 PUSH2 0xF6C PUSH1 0x28 DUP4 PUSH2 0xAA4 JUMP JUMPDEST SWAP2 POP PUSH2 0xF77 DUP3 PUSH2 0xF12 JUMP JUMPDEST PUSH1 0x40 DUP3 ADD SWAP1 POP SWAP2 SWAP1 POP JUMP JUMPDEST PUSH0 PUSH1 0x20 DUP3 ADD SWAP1 POP DUP2 DUP2 SUB PUSH0 DUP4 ADD MSTORE PUSH2 0xF99 DUP2 PUSH2 0xF60 JUMP JUMPDEST SWAP1 POP SWAP2 SWAP1 POP JUMP JUMPDEST PUSH32 0x43616E6E6F7420766F7465206F6E2065786563757465642070726F706F73616C PUSH0 DUP3 ADD MSTORE POP JUMP JUMPDEST PUSH0 PUSH2 0xFD4 PUSH1 0x20 DUP4 PUSH2 0xAA4 JUMP JUMPDEST SWAP2 POP PUSH2 0xFDF DUP3 PUSH2 0xFA0 JUMP JUMPDEST PUSH1 0x20 DUP3 ADD SWAP1 POP SWAP2 SWAP1 POP JUMP JUMPDEST PUSH0 PUSH1 0x20 DUP3 ADD SWAP1 POP DUP2 DUP2 SUB PUSH0 DUP4 ADD MSTORE PUSH2 0x1001 DUP2 PUSH2 0xFC8 JUMP JUMPDEST SWAP1 POP SWAP2 SWAP1 POP JUMP JUMPDEST PUSH0 PUSH2 0x1012 DUP3 PUSH2 0x9CE JUMP JUMPDEST SWAP2 POP PUSH2 0x101D DUP4 PUSH2 0x9CE JUMP JUMPDEST SWAP3 POP DUP3 DUP3 ADD SWAP1 POP DUP1 DUP3 GT ISZERO PUSH2 0x1035 JUMPI PUSH2 0x1034 PUSH2 0xEB2 JUMP JUMPDEST JUMPDEST SWAP3 SWAP2 POP POP JUMP INVALID LOG2 PUSH5 0x6970667358 0x22 SLT KECCAK256 DUP14 0xBF COINBASE DUP1 DUP3 0xCD 0xE8 SLOAD 0x2F SWAP3 0xDD 0xB2 0xED CALLER 0xF6 0xBC SWAP15 CALLCODE RETURN 0x4B PUSH30 0xFF7BE56521497FF8B8B8A264736F6C634300081A00330000000000000000 "
		},
		"gasEstimates": {
			"creation": {
				"codeDepositCost": "841800",
				"executionCost": "infinite",
				"totalCost": "infinite"
			},
			"external": {
				"addVotes(address,uint256)": "infinite",
				"budget()": "2535",
				"cancelProposal()": "7849",
				"creator()": "2509",
				"description()": "infinite",
				"executeProposal(uint256,uint256)": "infinite",
				"executed()": "2584",
				"proposalId()": "2469",
				"recipient()": "2508",
				"refundVotes(address,uint256)": "infinite",
				"title()": "infinite",
				"votes(address)": "2868"
			}
		},
		"methodIdentifiers": {
			"addVotes(address,uint256)": "de63298d",
			"budget()": "ed01bf29",
			"cancelProposal()": "9070577f",
			"creator()": "02d05d3f",
			"description()": "7284e416",
			"executeProposal(uint256,uint256)": "1ab76712",
			"executed()": "31a38c89",
			"proposalId()": "2dfca445",
			"recipient()": "66d003ac",
			"refundVotes(address,uint256)": "6090281d",
			"title()": "4a79d50c",
			"votes(address)": "d8bff5a5"
		}
	},
	"abi": [
		{
			"inputs": [
				{
					"internalType": "uint256",
					"name": "_proposalId",
					"type": "uint256"
				},
				{
					"internalType": "string",
					"name": "_title",
					"type": "string"
				},
				{
					"internalType": "string",
					"name": "_description",
					"type": "string"
				},
				{
					"internalType": "uint256",
					"name": "_budget",
					"type": "uint256"
				},
				{
					"internalType": "address",
					"name": "_recipient",
					"type": "address"
				}
			],
			"stateMutability": "nonpayable",
			"type": "constructor"
		},
		{
			"anonymous": false,
			"inputs": [
				{
					"indexed": false,
					"internalType": "uint256",
					"name": "proposalId",
					"type": "uint256"
				}
			],
			"name": "ProposalCanceled",
			"type": "event"
		},
		{
			"anonymous": false,
			"inputs": [
				{
					"indexed": false,
					"internalType": "uint256",
					"name": "proposalId",
					"type": "uint256"
				},
				{
					"indexed": false,
					"internalType": "uint256",
					"name": "amount",
					"type": "uint256"
				},
				{
					"indexed": false,
					"internalType": "address",
					"name": "recipient",
					"type": "address"
				}
			],
			"name": "ProposalExecuted",
			"type": "event"
		},
		{
			"inputs": [
				{
					"internalType": "address",
					"name": "participant",
					"type": "address"
				},
				{
					"internalType": "uint256",
					"name": "voteAmount",
					"type": "uint256"
				}
			],
			"name": "addVotes",
			"outputs": [],
			"stateMutability": "nonpayable",
			"type": "function"
		},
		{
			"inputs": [],
			"name": "budget",
			"outputs": [
				{
					"internalType": "uint256",
					"name": "",
					"type": "uint256"
				}
			],
			"stateMutability": "view",
			"type": "function"
		},
		{
			"inputs": [],
			"name": "cancelProposal",
			"outputs": [],
			"stateMutability": "nonpayable",
			"type": "function"
		},
		{
			"inputs": [],
			"name": "creator",
			"outputs": [
				{
					"internalType": "address",
					"name": "",
					"type": "address"
				}
			],
			"stateMutability": "view",
			"type": "function"
		},
		{
			"inputs": [],
			"name": "description",
			"outputs": [
				{
					"internalType": "string",
					"name": "",
					"type": "string"
				}
			],
			"stateMutability": "view",
			"type": "function"
		},
		{
			"inputs": [
				{
					"internalType": "uint256",
					"name": "numVotes",
					"type": "uint256"
				},
				{
					"internalType": "uint256",
					"name": "numTokens",
					"type": "uint256"
				}
			],
			"name": "executeProposal",
			"outputs": [],
			"stateMutability": "payable",
			"type": "function"
		},
		{
			"inputs": [],
			"name": "executed",
			"outputs": [
				{
					"internalType": "bool",
					"name": "",
					"type": "bool"
				}
			],
			"stateMutability": "view",
			"type": "function"
		},
		{
			"inputs": [],
			"name": "proposalId",
			"outputs": [
				{
					"internalType": "uint256",
					"name": "",
					"type": "uint256"
				}
			],
			"stateMutability": "view",
			"type": "function"
		},
		{
			"inputs": [],
			"name": "recipient",
			"outputs": [
				{
					"internalType": "address",
					"name": "",
					"type": "address"
				}
			],
			"stateMutability": "view",
			"type": "function"
		},
		{
			"inputs": [
				{
					"internalType": "address",
					"name": "participant",
					"type": "address"
				},
				{
					"internalType": "uint256",
					"name": "voteAmount",
					"type": "uint256"
				}
			],
			"name": "refundVotes",
			"outputs": [],
			"stateMutability": "nonpayable",
			"type": "function"
		},
		{
			"inputs": [],
			"name": "title",
			"outputs": [
				{
					"internalType": "string",
					"name": "",
					"type": "string"
				}
			],
			"stateMutability": "view",
			"type": "function"
		},
		{
			"inputs": [
				{
					"internalType": "address",
					"name": "",
					"type": "address"
				}
			],
			"name": "votes",
			"outputs": [
				{
					"internalType": "uint256",
					"name": "",
					"type": "uint256"
				}
			],
			"stateMutability": "view",
			"type": "function"
		}
	]
}